{
  "contractName": "GambleSaleListing",
  "abi": [
    {
      "inputs": [
        {
          "internalType": "address",
          "name": "_manager",
          "type": "address"
        },
        {
          "internalType": "string",
          "name": "_productIPFSId",
          "type": "string"
        },
        {
          "internalType": "string",
          "name": "_productHash",
          "type": "string"
        },
        {
          "internalType": "string",
          "name": "_location",
          "type": "string"
        },
        {
          "internalType": "string",
          "name": "_carrier",
          "type": "string"
        },
        {
          "internalType": "uint256",
          "name": "_price",
          "type": "uint256"
        },
        {
          "internalType": "uint256",
          "name": "_maxSlots",
          "type": "uint256"
        }
      ],
      "stateMutability": "payable",
      "type": "constructor"
    },
    {
      "anonymous": false,
      "inputs": [
        {
          "indexed": true,
          "internalType": "address",
          "name": "previousOwner",
          "type": "address"
        },
        {
          "indexed": true,
          "internalType": "address",
          "name": "newOwner",
          "type": "address"
        }
      ],
      "name": "OwnershipTransferred",
      "type": "event"
    },
    {
      "inputs": [],
      "name": "COLLATERAL_MULTIPLIER",
      "outputs": [
        {
          "internalType": "uint256",
          "name": "",
          "type": "uint256"
        }
      ],
      "stateMutability": "view",
      "type": "function"
    },
    {
      "inputs": [],
      "name": "ENTRY_AMOUNT",
      "outputs": [
        {
          "internalType": "uint256",
          "name": "",
          "type": "uint256"
        }
      ],
      "stateMutability": "view",
      "type": "function"
    },
    {
      "inputs": [],
      "name": "carrier",
      "outputs": [
        {
          "internalType": "string",
          "name": "",
          "type": "string"
        }
      ],
      "stateMutability": "view",
      "type": "function"
    },
    {
      "inputs": [],
      "name": "collateralBalance",
      "outputs": [
        {
          "internalType": "uint256",
          "name": "",
          "type": "uint256"
        }
      ],
      "stateMutability": "view",
      "type": "function"
    },
    {
      "inputs": [
        {
          "internalType": "address",
          "name": "",
          "type": "address"
        }
      ],
      "name": "currentEntries",
      "outputs": [
        {
          "internalType": "bool",
          "name": "",
          "type": "bool"
        }
      ],
      "stateMutability": "view",
      "type": "function"
    },
    {
      "inputs": [],
      "name": "item",
      "outputs": [
        {
          "internalType": "string",
          "name": "productIPFSId",
          "type": "string"
        },
        {
          "internalType": "string",
          "name": "productHash",
          "type": "string"
        }
      ],
      "stateMutability": "view",
      "type": "function"
    },
    {
      "inputs": [],
      "name": "location",
      "outputs": [
        {
          "internalType": "string",
          "name": "",
          "type": "string"
        }
      ],
      "stateMutability": "view",
      "type": "function"
    },
    {
      "inputs": [],
      "name": "maxDaysForApproval",
      "outputs": [
        {
          "internalType": "uint256",
          "name": "",
          "type": "uint256"
        }
      ],
      "stateMutability": "view",
      "type": "function"
    },
    {
      "inputs": [],
      "name": "maxDaysForDelivery",
      "outputs": [
        {
          "internalType": "uint256",
          "name": "",
          "type": "uint256"
        }
      ],
      "stateMutability": "view",
      "type": "function"
    },
    {
      "inputs": [],
      "name": "maxDaysForEntrance",
      "outputs": [
        {
          "internalType": "uint256",
          "name": "",
          "type": "uint256"
        }
      ],
      "stateMutability": "view",
      "type": "function"
    },
    {
      "inputs": [],
      "name": "maxDaysForShipping",
      "outputs": [
        {
          "internalType": "uint256",
          "name": "",
          "type": "uint256"
        }
      ],
      "stateMutability": "view",
      "type": "function"
    },
    {
      "inputs": [],
      "name": "maxSlots",
      "outputs": [
        {
          "internalType": "uint256",
          "name": "",
          "type": "uint256"
        }
      ],
      "stateMutability": "view",
      "type": "function"
    },
    {
      "inputs": [],
      "name": "owner",
      "outputs": [
        {
          "internalType": "address",
          "name": "",
          "type": "address"
        }
      ],
      "stateMutability": "view",
      "type": "function"
    },
    {
      "inputs": [
        {
          "internalType": "uint256",
          "name": "",
          "type": "uint256"
        }
      ],
      "name": "participants",
      "outputs": [
        {
          "internalType": "address",
          "name": "",
          "type": "address"
        }
      ],
      "stateMutability": "view",
      "type": "function"
    },
    {
      "inputs": [],
      "name": "price",
      "outputs": [
        {
          "internalType": "uint256",
          "name": "",
          "type": "uint256"
        }
      ],
      "stateMutability": "view",
      "type": "function"
    },
    {
      "inputs": [],
      "name": "renounceOwnership",
      "outputs": [],
      "stateMutability": "nonpayable",
      "type": "function"
    },
    {
      "inputs": [],
      "name": "status",
      "outputs": [
        {
          "internalType": "enum Status",
          "name": "",
          "type": "uint8"
        }
      ],
      "stateMutability": "view",
      "type": "function"
    },
    {
      "inputs": [
        {
          "internalType": "address",
          "name": "newOwner",
          "type": "address"
        }
      ],
      "name": "transferOwnership",
      "outputs": [],
      "stateMutability": "nonpayable",
      "type": "function"
    },
    {
      "inputs": [],
      "name": "winner",
      "outputs": [
        {
          "internalType": "address",
          "name": "",
          "type": "address"
        }
      ],
      "stateMutability": "view",
      "type": "function"
    },
    {
      "inputs": [],
      "name": "enter",
      "outputs": [],
      "stateMutability": "payable",
      "type": "function"
    },
    {
      "inputs": [],
      "name": "pickWinner",
      "outputs": [],
      "stateMutability": "nonpayable",
      "type": "function"
    },
    {
      "inputs": [],
      "name": "getEntryAmount",
      "outputs": [
        {
          "internalType": "uint256",
          "name": "",
          "type": "uint256"
        }
      ],
      "stateMutability": "view",
      "type": "function"
    },
    {
      "inputs": [],
      "name": "getParticipants",
      "outputs": [
        {
          "internalType": "address[]",
          "name": "",
          "type": "address[]"
        }
      ],
      "stateMutability": "view",
      "type": "function"
    },
    {
      "inputs": [],
      "name": "getStats",
      "outputs": [
        {
          "internalType": "uint256",
          "name": "",
          "type": "uint256"
        },
        {
          "internalType": "address",
          "name": "",
          "type": "address"
        },
        {
          "internalType": "address[]",
          "name": "",
          "type": "address[]"
        },
        {
          "internalType": "uint256",
          "name": "",
          "type": "uint256"
        },
        {
          "internalType": "uint256",
          "name": "",
          "type": "uint256"
        }
      ],
      "stateMutability": "view",
      "type": "function"
    }
  ],
  "bytecode": "0x60a0604052604051620020563803806200205683398181016040528101906200002991906200055e565b620000496200003d6200019c60201b60201c565b620001a460201b60201c565b620000596200026860201b60201c565b600a62000067919062000810565b82600162000076919062000861565b62000082919062000861565b34146200008e57600080fd5b6200009f87620001a460201b60201c565b60405180604001604052808781526020018681525060016000820151816000019080519060200190620000d492919062000271565b506020820151816001019080519060200190620000f392919062000271565b5090505083600390805190602001906200010f92919062000271565b5082600490805190602001906200012892919062000271565b508060068190555081600581905550600134620001469190620008f1565b6007819055506006546200015f6200026860201b60201c565b600a6200016d919062000810565b6005546200017c919062000861565b620001889190620008f1565b60808181525050505050505050506200098e565b600033905090565b60008060009054906101000a900473ffffffffffffffffffffffffffffffffffffffff169050816000806101000a81548173ffffffffffffffffffffffffffffffffffffffff021916908373ffffffffffffffffffffffffffffffffffffffff1602179055508173ffffffffffffffffffffffffffffffffffffffff168173ffffffffffffffffffffffffffffffffffffffff167f8be0079c531659141344cd1fd0a4f28419497f9722a3daafe3b4186f6b6457e060405160405180910390a35050565b60006012905090565b8280546200027f9062000958565b90600052602060002090601f016020900481019282620002a35760008555620002ef565b82601f10620002be57805160ff1916838001178555620002ef565b82800160010185558215620002ef579182015b82811115620002ee578251825591602001919060010190620002d1565b5b509050620002fe919062000302565b5090565b5b808211156200031d57600081600090555060010162000303565b5090565b6000604051905090565b600080fd5b600080fd5b600073ffffffffffffffffffffffffffffffffffffffff82169050919050565b6000620003628262000335565b9050919050565b620003748162000355565b81146200038057600080fd5b50565b600081519050620003948162000369565b92915050565b600080fd5b600080fd5b6000601f19601f8301169050919050565b7f4e487b7100000000000000000000000000000000000000000000000000000000600052604160045260246000fd5b620003ef82620003a4565b810181811067ffffffffffffffff82111715620004115762000410620003b5565b5b80604052505050565b60006200042662000321565b9050620004348282620003e4565b919050565b600067ffffffffffffffff821115620004575762000456620003b5565b5b6200046282620003a4565b9050602081019050919050565b60005b838110156200048f57808201518184015260208101905062000472565b838111156200049f576000848401525b50505050565b6000620004bc620004b68462000439565b6200041a565b905082815260208101848484011115620004db57620004da6200039f565b5b620004e88482856200046f565b509392505050565b600082601f8301126200050857620005076200039a565b5b81516200051a848260208601620004a5565b91505092915050565b6000819050919050565b620005388162000523565b81146200054457600080fd5b50565b60008151905062000558816200052d565b92915050565b600080600080600080600060e0888a03121562000580576200057f6200032b565b5b6000620005908a828b0162000383565b975050602088015167ffffffffffffffff811115620005b457620005b362000330565b5b620005c28a828b01620004f0565b965050604088015167ffffffffffffffff811115620005e657620005e562000330565b5b620005f48a828b01620004f0565b955050606088015167ffffffffffffffff81111562000618576200061762000330565b5b620006268a828b01620004f0565b945050608088015167ffffffffffffffff8111156200064a576200064962000330565b5b620006588a828b01620004f0565b93505060a06200066b8a828b0162000547565b92505060c06200067e8a828b0162000547565b91505092959891949750929550565b7f4e487b7100000000000000000000000000000000000000000000000000000000600052601160045260246000fd5b60008160011c9050919050565b6000808291508390505b60018511156200071b57808604811115620006f357620006f26200068d565b5b6001851615620007035780820291505b80810290506200071385620006bc565b9450620006d3565b94509492505050565b60008262000736576001905062000809565b8162000746576000905062000809565b81600181146200075f57600281146200076a57620007a0565b600191505062000809565b60ff8411156200077f576200077e6200068d565b5b8360020a9150848211156200079957620007986200068d565b5b5062000809565b5060208310610133831016604e8410600b8410161715620007da5782820a905083811115620007d457620007d36200068d565b5b62000809565b620007e98484846001620006c9565b925090508184048111156200080357620008026200068d565b5b81810290505b9392505050565b60006200081d8262000523565b91506200082a8362000523565b9250620008597fffffffffffffffffffffffffffffffffffffffffffffffffffffffffffffffff848462000724565b905092915050565b60006200086e8262000523565b91506200087b8362000523565b9250817fffffffffffffffffffffffffffffffffffffffffffffffffffffffffffffffff0483118215151615620008b757620008b66200068d565b5b828202905092915050565b7f4e487b7100000000000000000000000000000000000000000000000000000000600052601260045260246000fd5b6000620008fe8262000523565b91506200090b8362000523565b9250826200091e576200091d620008c2565b5b828204905092915050565b7f4e487b7100000000000000000000000000000000000000000000000000000000600052602260045260246000fd5b600060028204905060018216806200097157607f821691505b6020821081141562000988576200098762000929565b5b50919050565b60805161169e620009b86000396000818161053a015281816108af0152610a93015261169e6000f3fe60806040526004361061014b5760003560e01c80638da5cb5b116100b6578063cbd69f3f1161006f578063cbd69f3f14610456578063dfbf53ae14610481578063e97dcb62146104ac578063efb0fba4146104b6578063f2a4a82e146104e1578063f2fde38b1461050d5761014b565b80638da5cb5b1461035057806392130f1c1461037b578063a035b1fe146103a6578063ab354b7e146103d1578063c59d4847146103fc578063c98c05b71461042b5761014b565b80635aa68ac0116101085780635aa68ac0146102645780635d495aea1461028f5780635de20538146102a65780636ac480b5146102e3578063715018a61461030e5780638537729b146103255761014b565b80631d71258114610150578063200d2ed21461017b5780632bdc32ff146101a657806335c1d349146101d157806338ddb7011461020e578063516f279e14610239575b600080fd5b34801561015c57600080fd5b50610165610536565b6040516101729190610f20565b60405180910390f35b34801561018757600080fd5b5061019061055e565b60405161019d9190610fb2565b60405180910390f35b3480156101b257600080fd5b506101bb610571565b6040516101c89190611066565b60405180910390f35b3480156101dd57600080fd5b506101f860048036038101906101f391906110b9565b6105ff565b6040516102059190611127565b60405180910390f35b34801561021a57600080fd5b5061022361063e565b6040516102309190610f20565b60405180910390f35b34801561024557600080fd5b5061024e610644565b60405161025b9190611066565b60405180910390f35b34801561027057600080fd5b506102796106d2565b6040516102869190611200565b60405180910390f35b34801561029b57600080fd5b506102a4610760565b005b3480156102b257600080fd5b506102cd60048036038101906102c8919061124e565b61088d565b6040516102da9190611296565b60405180910390f35b3480156102ef57600080fd5b506102f86108ad565b6040516103059190610f20565b60405180910390f35b34801561031a57600080fd5b506103236108d1565b005b34801561033157600080fd5b5061033a610959565b6040516103479190610f20565b60405180910390f35b34801561035c57600080fd5b5061036561095f565b6040516103729190611127565b60405180910390f35b34801561038757600080fd5b50610390610988565b60405161039d9190610f20565b60405180910390f35b3480156103b257600080fd5b506103bb61098e565b6040516103c89190610f20565b60405180910390f35b3480156103dd57600080fd5b506103e6610994565b6040516103f39190610f20565b60405180910390f35b34801561040857600080fd5b5061041161099a565b6040516104229594939291906112b1565b60405180910390f35b34801561043757600080fd5b50610440610a4c565b60405161044d9190610f20565b60405180910390f35b34801561046257600080fd5b5061046b610a52565b6040516104789190610f20565b60405180910390f35b34801561048d57600080fd5b50610496610a58565b6040516104a39190611127565b60405180910390f35b6104b4610a7e565b005b3480156104c257600080fd5b506104cb610bdd565b6040516104d89190610f20565b60405180910390f35b3480156104ed57600080fd5b506104f6610be2565b60405161050492919061130b565b60405180910390f35b34801561051957600080fd5b50610534600480360381019061052f919061124e565b610d04565b005b60007f0000000000000000000000000000000000000000000000000000000000000000905090565b600c60009054906101000a900460ff1681565b6004805461057e90611371565b80601f01602080910402602001604051908101604052809291908181526020018280546105aa90611371565b80156105f75780601f106105cc576101008083540402835291602001916105f7565b820191906000526020600020905b8154815290600101906020018083116105da57829003601f168201915b505050505081565b600d818154811061060f57600080fd5b906000526020600020016000915054906101000a900473ffffffffffffffffffffffffffffffffffffffff1681565b600b5481565b6003805461065190611371565b80601f016020809104026020016040519081016040528092919081815260200182805461067d90611371565b80156106ca5780601f1061069f576101008083540402835291602001916106ca565b820191906000526020600020905b8154815290600101906020018083116106ad57829003601f168201915b505050505081565b6060600d80548060200260200160405190810160405280929190818152602001828054801561075657602002820191906000526020600020905b8160009054906101000a900473ffffffffffffffffffffffffffffffffffffffff1673ffffffffffffffffffffffffffffffffffffffff168152602001906001019080831161070c575b5050505050905090565b610768610dfc565b73ffffffffffffffffffffffffffffffffffffffff1661078661095f565b73ffffffffffffffffffffffffffffffffffffffff16146107dc576040517f08c379a00000000000000000000000000000000000000000000000000000000081526004016107d3906113ef565b60405180910390fd5b600654600d80549050146107ef57600080fd5b6000600d805490506107ff610e04565b610809919061143e565b9050600d818154811061081f5761081e61146f565b5b9060005260206000200160009054906101000a900473ffffffffffffffffffffffffffffffffffffffff16600e60006101000a81548173ffffffffffffffffffffffffffffffffffffffff021916908373ffffffffffffffffffffffffffffffffffffffff16021790555050565b600f6020528060005260406000206000915054906101000a900460ff1681565b7f000000000000000000000000000000000000000000000000000000000000000081565b6108d9610dfc565b73ffffffffffffffffffffffffffffffffffffffff166108f761095f565b73ffffffffffffffffffffffffffffffffffffffff161461094d576040517f08c379a0000000000000000000000000000000000000000000000000000000008152600401610944906113ef565b60405180910390fd5b6109576000610e43565b565b60085481565b60008060009054906101000a900473ffffffffffffffffffffffffffffffffffffffff16905090565b60095481565b60055481565b600a5481565b6000806060600080476109ab61095f565b600d60065460075482805480602002602001604051908101604052809291908181526020018280548015610a3457602002820191906000526020600020905b8160009054906101000a900473ffffffffffffffffffffffffffffffffffffffff1673ffffffffffffffffffffffffffffffffffffffff16815260200190600101908083116109ea575b50505050509250945094509450945094509091929394565b60075481565b60065481565b600e60009054906101000a900473ffffffffffffffffffffffffffffffffffffffff1681565b600654600d8054905010610a9157600080fd5b7f00000000000000000000000000000000000000000000000000000000000000003414610abd57600080fd5b60001515600f60003373ffffffffffffffffffffffffffffffffffffffff1673ffffffffffffffffffffffffffffffffffffffff16815260200190815260200160002060009054906101000a900460ff1615151415610bd6576001600f60003373ffffffffffffffffffffffffffffffffffffffff1673ffffffffffffffffffffffffffffffffffffffff16815260200190815260200160002060006101000a81548160ff021916908315150217905550600d339080600181540180825580915050600190039060005260206000200160009091909190916101000a81548173ffffffffffffffffffffffffffffffffffffffff021916908373ffffffffffffffffffffffffffffffffffffffff160217905550610bdb565b600080fd5b565b600181565b6001806000018054610bf390611371565b80601f0160208091040260200160405190810160405280929190818152602001828054610c1f90611371565b8015610c6c5780601f10610c4157610100808354040283529160200191610c6c565b820191906000526020600020905b815481529060010190602001808311610c4f57829003601f168201915b505050505090806001018054610c8190611371565b80601f0160208091040260200160405190810160405280929190818152602001828054610cad90611371565b8015610cfa5780601f10610ccf57610100808354040283529160200191610cfa565b820191906000526020600020905b815481529060010190602001808311610cdd57829003601f168201915b5050505050905082565b610d0c610dfc565b73ffffffffffffffffffffffffffffffffffffffff16610d2a61095f565b73ffffffffffffffffffffffffffffffffffffffff1614610d80576040517f08c379a0000000000000000000000000000000000000000000000000000000008152600401610d77906113ef565b60405180910390fd5b600073ffffffffffffffffffffffffffffffffffffffff168173ffffffffffffffffffffffffffffffffffffffff161415610df0576040517f08c379a0000000000000000000000000000000000000000000000000000000008152600401610de790611510565b60405180910390fd5b610df981610e43565b50565b600033905090565b60004244610e1061095f565b600d604051602001610e25949392919061161c565b6040516020818303038152906040528051906020012060001c905090565b60008060009054906101000a900473ffffffffffffffffffffffffffffffffffffffff169050816000806101000a81548173ffffffffffffffffffffffffffffffffffffffff021916908373ffffffffffffffffffffffffffffffffffffffff1602179055508173ffffffffffffffffffffffffffffffffffffffff168173ffffffffffffffffffffffffffffffffffffffff167f8be0079c531659141344cd1fd0a4f28419497f9722a3daafe3b4186f6b6457e060405160405180910390a35050565b6000819050919050565b610f1a81610f07565b82525050565b6000602082019050610f356000830184610f11565b92915050565b7f4e487b7100000000000000000000000000000000000000000000000000000000600052602160045260246000fd5b60078110610f7b57610f7a610f3b565b5b50565b6000819050610f8c82610f6a565b919050565b6000610f9c82610f7e565b9050919050565b610fac81610f91565b82525050565b6000602082019050610fc76000830184610fa3565b92915050565b600081519050919050565b600082825260208201905092915050565b60005b83811015611007578082015181840152602081019050610fec565b83811115611016576000848401525b50505050565b6000601f19601f8301169050919050565b600061103882610fcd565b6110428185610fd8565b9350611052818560208601610fe9565b61105b8161101c565b840191505092915050565b60006020820190508181036000830152611080818461102d565b905092915050565b600080fd5b61109681610f07565b81146110a157600080fd5b50565b6000813590506110b38161108d565b92915050565b6000602082840312156110cf576110ce611088565b5b60006110dd848285016110a4565b91505092915050565b600073ffffffffffffffffffffffffffffffffffffffff82169050919050565b6000611111826110e6565b9050919050565b61112181611106565b82525050565b600060208201905061113c6000830184611118565b92915050565b600081519050919050565b600082825260208201905092915050565b6000819050602082019050919050565b61117781611106565b82525050565b6000611189838361116e565b60208301905092915050565b6000602082019050919050565b60006111ad82611142565b6111b7818561114d565b93506111c28361115e565b8060005b838110156111f35781516111da888261117d565b97506111e583611195565b9250506001810190506111c6565b5085935050505092915050565b6000602082019050818103600083015261121a81846111a2565b905092915050565b61122b81611106565b811461123657600080fd5b50565b60008135905061124881611222565b92915050565b60006020828403121561126457611263611088565b5b600061127284828501611239565b91505092915050565b60008115159050919050565b6112908161127b565b82525050565b60006020820190506112ab6000830184611287565b92915050565b600060a0820190506112c66000830188610f11565b6112d36020830187611118565b81810360408301526112e581866111a2565b90506112f46060830185610f11565b6113016080830184610f11565b9695505050505050565b60006040820190508181036000830152611325818561102d565b90508181036020830152611339818461102d565b90509392505050565b7f4e487b7100000000000000000000000000000000000000000000000000000000600052602260045260246000fd5b6000600282049050600182168061138957607f821691505b6020821081141561139d5761139c611342565b5b50919050565b7f4f776e61626c653a2063616c6c6572206973206e6f7420746865206f776e6572600082015250565b60006113d9602083610fd8565b91506113e4826113a3565b602082019050919050565b60006020820190508181036000830152611408816113cc565b9050919050565b7f4e487b7100000000000000000000000000000000000000000000000000000000600052601260045260246000fd5b600061144982610f07565b915061145483610f07565b9250826114645761146361140f565b5b828206905092915050565b7f4e487b7100000000000000000000000000000000000000000000000000000000600052603260045260246000fd5b7f4f776e61626c653a206e6577206f776e657220697320746865207a65726f206160008201527f6464726573730000000000000000000000000000000000000000000000000000602082015250565b60006114fa602683610fd8565b91506115058261149e565b604082019050919050565b60006020820190508181036000830152611529816114ed565b9050919050565b600081549050919050565b60008190508160005260206000209050919050565b60008160001c9050919050565b600073ffffffffffffffffffffffffffffffffffffffff82169050919050565b600061159061158b83611550565b61155d565b9050919050565b60006115a3825461157d565b9050919050565b6000600182019050919050565b60006115c282611530565b6115cc818561114d565b93506115d78361153b565b8060005b8381101561160f576115ec82611597565b6115f6888261117d565b9750611601836115aa565b9250506001810190506115db565b5085935050505092915050565b60006080820190506116316000830187610f11565b61163e6020830186610f11565b61164b6040830185611118565b818103606083015261165d81846115b7565b90509594505050505056fea2646970667358221220bd43c44771381a8b8d2c77ea57d7d41cc59dc0f00ca8ea89106af3a4fd8abe4f64736f6c634300080a0033",
  "immutableReferences": {
    "138": [
      {
        "length": 32,
        "start": 1338
      },
      {
        "length": 32,
        "start": 2223
      },
      {
        "length": 32,
        "start": 2707
      }
    ]
  },
  "source": "// SPDX-License-Identifier: MIT\npragma solidity 0.8.10;\n\nimport './StatusEnum.sol';\nimport './ItemStruct.sol';\n\nimport \"@openzeppelin/contracts/access/Ownable.sol\";\n\ncontract GambleSaleListing is Ownable {\n    uint public constant COLLATERAL_MULTIPLIER = 1;\n    uint public immutable ENTRY_AMOUNT;\n\n    Item public item;\n    string public location; // address1, address2, zip, state, city, country\n    string public carrier;\n    uint public price;\n    uint public maxSlots;\n    uint public collateralBalance;\n    \n    // all positions should be filled until prior entrance deadline, otherwise \n    // contract gets terminated and manager(owner) covers the fees, since it is his fault campaign is not atractive enough\n    uint public maxDaysForEntrance;\n    \n    // once a winner is picked, there is a timeframe to ship the product, otherwise contract gets terminated and manager(owner) covers the fees\n    uint public maxDaysForShipping;\n\n    // once the product is shipped there is a timeframe to deliver it, otherwise contract gets terminated and manager(owner) covers the fees\n    uint public maxDaysForDelivery;\n\n    // once the product is delivered with a proof, there is a timeframe for the winner to approve it, otherwise contract gets terminated and the winner covers the fees\n    uint public maxDaysForApproval;\n\n    Status public status;\n\n    address[] public participants;\n    address public winner;\n\n    mapping (address => bool) public currentEntries;\n\n    modifier onlyIfSlotsFilled() {\n        require(participants.length == maxSlots);\n        _;\n    }\n\n    constructor(address _manager, \n                string memory _productIPFSId,\n                string memory _productHash,\n                string memory _location,\n                string memory _carrier,\n                uint _price,\n                uint _maxSlots) payable {\n        \n        require(msg.value == COLLATERAL_MULTIPLIER * _price * 10 ** decimals());\n        \n        _transferOwnership(_manager);\n\n        item = Item({ productIPFSId: _productIPFSId, productHash: _productHash });\n        location = _location;\n        carrier = _carrier;\n        maxSlots = _maxSlots;\n        price = _price;\n        collateralBalance = msg.value / COLLATERAL_MULTIPLIER;\n        ENTRY_AMOUNT = (price * 10 ** decimals() / maxSlots);\n    }\n  \n    function enter() public payable {\n        require(participants.length < maxSlots);\n        require(msg.value == ENTRY_AMOUNT);\n\n        if (currentEntries[msg.sender] == false) {\n            currentEntries[msg.sender] = true;\n            participants.push(msg.sender);\n        } else {\n            revert();\n        }\n    }\n    \n    function pickWinner() public onlyOwner onlyIfSlotsFilled {\n        uint index = _random() % participants.length;\n        winner = participants[index];\n    }\n\n    // function releaseFunds() public {\n    //     winner.transfer(address(this).balance);\n    //     participants = new address[](0);\n    // }\n\n    // TODO\n    // use trully random number from off-chain\n    function _random() private view returns (uint256) {\n        return uint(keccak256(abi.encode(block.timestamp, block.difficulty, owner(), participants)));\n    }\n\n    function getEntryAmount() public view returns (uint) {\n        return ENTRY_AMOUNT;\n    }\n\n    function getParticipants() public view returns (address[] memory) {\n        return participants;\n    }\n    \n    function getStats() public view returns (uint, address, address[] memory, uint, uint) {\n        // TODO\n        return (\n            address(this).balance,\n            owner(),\n            participants,\n            // winner,\n            maxSlots,\n            collateralBalance\n            // maxDaysForEntrance,\n            // maxDaysForShipping,\n            // maxDaysForDelivery,\n            // maxDaysForApproval\n        );\n    }\n\n    function decimals() private pure returns (uint) {\n        return 18;\n    } \n}",
  "sourcePath": "/home/rado/Dev/development/courses/consensys/blockchain-developer-bootcamp-final-project/contracts/GambleSaleListing.sol",
  "compiler": {
    "name": "solc",
    "version": "0.8.10+commit.fc410830.Emscripten.clang"
  },
  "schemaVersion": "3.4.3",
  "updatedAt": "2021-12-01T20:00:07.647Z",
  "devdoc": {
    "kind": "dev",
    "methods": {
      "owner()": {
        "details": "Returns the address of the current owner."
      },
      "renounceOwnership()": {
        "details": "Leaves the contract without owner. It will not be possible to call `onlyOwner` functions anymore. Can only be called by the current owner. NOTE: Renouncing ownership will leave the contract without an owner, thereby removing any functionality that is only available to the owner."
      },
      "transferOwnership(address)": {
        "details": "Transfers ownership of the contract to a new account (`newOwner`). Can only be called by the current owner."
      }
    },
    "version": 1
  },
  "userdoc": {
    "kind": "user",
    "methods": {},
    "version": 1
  }
}